{
  "address": "0x03c74Ba4dFfd3E56b892b671fb7811Fa77D9F40A",
  "abi": [
    {
      "inputs": [
        {
          "internalType": "address",
          "name": "_connext",
          "type": "address"
        },
        {
          "internalType": "address",
          "name": "_aavePool",
          "type": "address"
        }
      ],
      "stateMutability": "nonpayable",
      "type": "constructor"
    },
    {
      "inputs": [
        {
          "internalType": "address",
          "name": "sender",
          "type": "address"
        }
      ],
      "name": "ForwarderXReceiver__onlyConnext",
      "type": "error"
    },
    {
      "inputs": [
        {
          "internalType": "address",
          "name": "sender",
          "type": "address"
        }
      ],
      "name": "ForwarderXReceiver__prepareAndForward_notThis",
      "type": "error"
    },
    {
      "anonymous": false,
      "inputs": [
        {
          "indexed": false,
          "internalType": "bytes32",
          "name": "_transferId",
          "type": "bytes32"
        }
      ],
      "name": "ForwardedFunctionCallFailed",
      "type": "event"
    },
    {
      "anonymous": false,
      "inputs": [
        {
          "indexed": false,
          "internalType": "bytes32",
          "name": "_transferId",
          "type": "bytes32"
        },
        {
          "indexed": false,
          "internalType": "string",
          "name": "_errorMessage",
          "type": "string"
        }
      ],
      "name": "ForwardedFunctionCallFailed",
      "type": "event"
    },
    {
      "anonymous": false,
      "inputs": [
        {
          "indexed": false,
          "internalType": "bytes32",
          "name": "_transferId",
          "type": "bytes32"
        },
        {
          "indexed": false,
          "internalType": "uint256",
          "name": "_errorCode",
          "type": "uint256"
        }
      ],
      "name": "ForwardedFunctionCallFailed",
      "type": "event"
    },
    {
      "anonymous": false,
      "inputs": [
        {
          "indexed": false,
          "internalType": "bytes32",
          "name": "_transferId",
          "type": "bytes32"
        },
        {
          "indexed": false,
          "internalType": "bytes",
          "name": "_lowLevelData",
          "type": "bytes"
        }
      ],
      "name": "ForwardedFunctionCallFailed",
      "type": "event"
    },
    {
      "anonymous": false,
      "inputs": [
        {
          "indexed": true,
          "internalType": "address",
          "name": "previousOwner",
          "type": "address"
        },
        {
          "indexed": true,
          "internalType": "address",
          "name": "newOwner",
          "type": "address"
        }
      ],
      "name": "OwnershipTransferStarted",
      "type": "event"
    },
    {
      "anonymous": false,
      "inputs": [
        {
          "indexed": true,
          "internalType": "address",
          "name": "previousOwner",
          "type": "address"
        },
        {
          "indexed": true,
          "internalType": "address",
          "name": "newOwner",
          "type": "address"
        }
      ],
      "name": "OwnershipTransferred",
      "type": "event"
    },
    {
      "anonymous": false,
      "inputs": [
        {
          "indexed": false,
          "internalType": "bytes32",
          "name": "_transferId",
          "type": "bytes32"
        },
        {
          "indexed": false,
          "internalType": "bytes",
          "name": "_data",
          "type": "bytes"
        },
        {
          "indexed": false,
          "internalType": "uint256",
          "name": "_amount",
          "type": "uint256"
        },
        {
          "indexed": false,
          "internalType": "address",
          "name": "_asset",
          "type": "address"
        }
      ],
      "name": "Prepared",
      "type": "event"
    },
    {
      "inputs": [],
      "name": "aavePool",
      "outputs": [
        {
          "internalType": "contract IPool",
          "name": "",
          "type": "address"
        }
      ],
      "stateMutability": "view",
      "type": "function"
    },
    {
      "inputs": [],
      "name": "acceptOwnership",
      "outputs": [],
      "stateMutability": "nonpayable",
      "type": "function"
    },
    {
      "inputs": [
        {
          "internalType": "address",
          "name": "_swapper",
          "type": "address"
        }
      ],
      "name": "addSwapper",
      "outputs": [],
      "stateMutability": "nonpayable",
      "type": "function"
    },
    {
      "inputs": [
        {
          "internalType": "address",
          "name": "",
          "type": "address"
        }
      ],
      "name": "allowedSwappers",
      "outputs": [
        {
          "internalType": "bool",
          "name": "",
          "type": "bool"
        }
      ],
      "stateMutability": "view",
      "type": "function"
    },
    {
      "inputs": [],
      "name": "connext",
      "outputs": [
        {
          "internalType": "contract IConnext",
          "name": "",
          "type": "address"
        }
      ],
      "stateMutability": "view",
      "type": "function"
    },
    {
      "inputs": [
        {
          "internalType": "address",
          "name": "_swapper",
          "type": "address"
        },
        {
          "internalType": "bytes",
          "name": "swapData",
          "type": "bytes"
        }
      ],
      "name": "directSwapperCall",
      "outputs": [
        {
          "internalType": "uint256",
          "name": "amountOut",
          "type": "uint256"
        }
      ],
      "stateMutability": "payable",
      "type": "function"
    },
    {
      "inputs": [
        {
          "internalType": "address",
          "name": "_swapper",
          "type": "address"
        },
        {
          "internalType": "uint256",
          "name": "_amountIn",
          "type": "uint256"
        },
        {
          "internalType": "address",
          "name": "_fromAsset",
          "type": "address"
        },
        {
          "internalType": "address",
          "name": "_toAsset",
          "type": "address"
        },
        {
          "internalType": "bytes",
          "name": "_swapData",
          "type": "bytes"
        }
      ],
      "name": "exactSwap",
      "outputs": [
        {
          "internalType": "uint256",
          "name": "amountOut",
          "type": "uint256"
        }
      ],
      "stateMutability": "payable",
      "type": "function"
    },
    {
      "inputs": [],
      "name": "owner",
      "outputs": [
        {
          "internalType": "address",
          "name": "",
          "type": "address"
        }
      ],
      "stateMutability": "view",
      "type": "function"
    },
    {
      "inputs": [],
      "name": "pendingOwner",
      "outputs": [
        {
          "internalType": "address",
          "name": "",
          "type": "address"
        }
      ],
      "stateMutability": "view",
      "type": "function"
    },
    {
      "inputs": [
        {
          "internalType": "bytes32",
          "name": "_transferId",
          "type": "bytes32"
        },
        {
          "internalType": "bytes",
          "name": "_data",
          "type": "bytes"
        },
        {
          "internalType": "uint256",
          "name": "_amount",
          "type": "uint256"
        },
        {
          "internalType": "address",
          "name": "_asset",
          "type": "address"
        }
      ],
      "name": "prepareAndForward",
      "outputs": [
        {
          "internalType": "bool",
          "name": "",
          "type": "bool"
        }
      ],
      "stateMutability": "nonpayable",
      "type": "function"
    },
    {
      "inputs": [
        {
          "internalType": "address",
          "name": "_swapper",
          "type": "address"
        }
      ],
      "name": "removeSwapper",
      "outputs": [],
      "stateMutability": "nonpayable",
      "type": "function"
    },
    {
      "inputs": [],
      "name": "renounceOwnership",
      "outputs": [],
      "stateMutability": "nonpayable",
      "type": "function"
    },
    {
      "inputs": [
        {
          "internalType": "address",
          "name": "newOwner",
          "type": "address"
        }
      ],
      "name": "transferOwnership",
      "outputs": [],
      "stateMutability": "nonpayable",
      "type": "function"
    },
    {
      "inputs": [],
      "name": "uniswapSwapRouter",
      "outputs": [
        {
          "internalType": "address",
          "name": "",
          "type": "address"
        }
      ],
      "stateMutability": "view",
      "type": "function"
    },
    {
      "inputs": [
        {
          "internalType": "bytes32",
          "name": "_transferId",
          "type": "bytes32"
        },
        {
          "internalType": "uint256",
          "name": "_amount",
          "type": "uint256"
        },
        {
          "internalType": "address",
          "name": "_asset",
          "type": "address"
        },
        {
          "internalType": "address",
          "name": "",
          "type": "address"
        },
        {
          "internalType": "uint32",
          "name": "",
          "type": "uint32"
        },
        {
          "internalType": "bytes",
          "name": "_callData",
          "type": "bytes"
        }
      ],
      "name": "xReceive",
      "outputs": [
        {
          "internalType": "bytes",
          "name": "",
          "type": "bytes"
        }
      ],
      "stateMutability": "nonpayable",
      "type": "function"
    },
    {
      "stateMutability": "payable",
      "type": "receive"
    }
  ],
  "transactionHash": "0xeb9cc8f777e519c171099b65cd8fa4450694b636471680a7489ecbeabd94c131",
  "args": [
    "0x8f7492DE823025b4CfaAB1D34c58963F2af5DEDA",
    "0x794a61358D6845594F94dc1DB02A252b5b4814aD"
  ],
  "numDeployments": 1,
  "solcInputHash": "37f333057b69eb723762b6c78ced7a95",
  "bytecode": "0x60c03461011e57601f6115fd38819003918201601f19168301916001600160401b0383118484101761012357808492604094855283398101031261011e5780610049602092610139565b6001600160a01b0392909183916100609101610139565b16908260018060a01b03199160009383855416178455166080528060025416600255600154903390821617600155604051923391167f8be0079c531659141344cd1fd0a4f28419497f9722a3daafe3b4186f6b6457e08380a36001604073e592427a0aece92de3edee1f18e0157c05861564928360a05230815260036020528181209360ff19948486825416179055815220918254161790556114af908161014e8239608051818181610135015261055a015260a05181610dbb0152f35b600080fd5b634e487b7160e01b600052604160045260246000fd5b51906001600160a01b038216820361011e5756fe60806040818152600480361015610021575b505050361561001f57600080fd5b005b600092833560e01c90816336f7d9f814610da7575080633f2d413114610d67578063715018a614610d0057806379ba509714610c355780638da5cb5b14610c0c5780638ff1ed9714610bce5780639938500614610b8b578063a03e4bc314610b63578063a0d7010214610a5b578063a8cf939a14610589578063de4b054814610545578063defc2248146104e0578063e30c3978146104b3578063f2fde38b146104425763fd614f410361001157346104205760c0366003190112610420578035916024356100ee610e16565b936100f7610e00565b5060843563ffffffff81160361043e5767ffffffffffffffff9360a43585811161043a576101289036908301610e2c565b90926001600160a01b03917f0000000000000000000000000000000000000000000000000000000000000000831633036104245790899185019487818703126104205780359584871680970361041c576020998a83013590811161041857899484886101b98f948f9661019d918f9901610f01565b9484995197889687958695635467c9cd60e11b87528601610fd7565b0391305af18b91816103f9575b506103b9575060018a60033d116103aa575b806308c379a01461034d57634e487b71146102ef575b6102a1575b505b159687610229575b8551881581890152878152876102258861021684610e5a565b51928284938452830190610f42565b0390f35b91886044928895948851978896879563a9059cbb60e01b87528601526024850152165af18015610297576102259394955061026a575b8493928180806101fd565b61028990843d8611610290575b6102818183610e8c565b810190610fbf565b503861025f565b503d610277565b82513d87823e3d90fd5b90507fd2910f39771e835e5ce7a46de2960a760c01e9a619eb6dcc5edcc66769be01b76102cc61107a565b8a926102e6895192839283528a8c8401528a830190610f42565b0390a1386101f3565b8a8060233d1161033e575b610305575b506101ee565b925050897f8417b1b7f20d2303f09dcc366b1ba3cffaff11a075be3176b7d9438c7ff1ecc1888c948151908582528c820152a1386102ff565b505088858c3e8a5160016102fa565b5061035661100b565b8061036157506101ee565b925050897f790be3f6f50a0117fedb3f7bc0884cb2ec714072a14a7fbff383d30ca387354a888a6103a1849683519384938885528401528c830190610f42565b0390a1386102ff565b50848b803e8a5160e01c6101d8565b91508782156103ca575b50506101f5565b7fb284b558e6c999e6d852feb06fb775cb93820bf7cbeb38ede491e913735b5fe8918851908152a138876103c3565b6104119192508a3d8c11610290576102818183610e8c565b90386101c6565b8480fd5b8380fd5b8280fd5b86516334b1fceb60e21b81523381860152602490fd5b8780fd5b8580fd5b83346104b05760203660031901126104b05761045c610dea565b610464610f67565b600280546001600160a01b0319166001600160a01b039283169081179091556001549091167f38d16b8cac22d99fc7c124b9cd0de2d3fa1faef420bfe791d8c362d765e227008380a380f35b80fd5b5050346104dc57816003193601126104dc5760025490516001600160a01b039091168152602090f35b5080fd5b509160a03660031901126104b0576104f6610dea565b906104ff610e16565b93610508610e00565b916084359067ffffffffffffffff82116104b057509161053261053e949260209794369101610e2c565b93909260243590611121565b9051908152f35b5050346104dc57816003193601126104dc57517f00000000000000000000000000000000000000000000000000000000000000006001600160a01b03168152602090f35b5090346104205760803660031901126104205767ffffffffffffffff916024803584811161043e576105be9036908401610f01565b6105c6610e00565b95303303610a45578151820196602096608084898b019a0312610420576105ee8885016110aa565b916105fa8886016110aa565b94606081015183811161043e578b8b610615928401016110be565b9a608082015184811161093557828c9d93928d8b938d9e9f979501019061063b916110be565b928d5195631bdf844960e31b8752600160a01b600190039c8d809a1690880152868060449e8f9d8e3580988401528186169e8f9084015216978860648301526084820160a0905260a4820161068f91610f42565b03818c305af1958615610a3b578f949392918f8f928c996109f9575b508051809781019660a0885260c082016106c491610f42565b938282019a8b52606082019e8f5260808201998a5235938460a083015203601f19810188526106f39088610e8c565b519384936107019385610fd7565b037f3a700941af6362d63bae3aafce3cc3a3f05b149061a37fb8678d9f6aea1201cf91a1815182019082820360801361043a57519085821161043a5761076393928e61075d938161075594019201016110be565b9351976110aa565b506110aa565b5060608180518101031261041c5761077c8a82016110aa565b60606107898b84016110aa565b9201519061ffff821680920361043e5784169386156109c85785548b51636eb1769f60e11b815230818d019081526001600160a01b0392841692831660208201528e908290819060400103818a5afa9081156109be57908991899161098d575b5010610939575b508086541692833b15610935578a878a969581958f8a968f91968e608498519c8d9a8b9963617ba03760e01b8b528a0152880152169085015260648401525af1801561092b57918693918b936108ff575b505088516370a0823160e01b8152308982015292839182905afa9182156108f457916108c2575b5010610878575050505160018152f35b6022906084957f41617665506f6f6c5461726765743a2042616c616e6365206e6f7420656e6f759495519562461bcd60e51b8752860152840152820152610ced60f31b6064820152fd5b90508681813d83116108ed575b6108d98183610e8c565b810103126108e8575138610868565b600080fd5b503d6108cf565b8751903d90823e3d90fd5b919493508092501161091957849189918952923880610841565b634e487b7160e01b8252604187528482fd5b89513d86823e3d90fd5b8680fd5b8b5163095ea7b360e01b81528b810191909152600019898201528c818b818a8a5af1801561098357156107f05761097c908d803d10610290576102818183610e8c565b50386107f0565b8c513d89823e3d90fd5b8f8193508092503d83116109b7575b6109a68183610e8c565b8101031261043a57889051386107e9565b503d61099c565b8d513d8a823e3d90fd5b5050885162461bcd60e51b81528089018b9052600b818801526a16995c9bc8105b5bdd5b9d60aa1b81890152606490fd5b9395979850509294905081813d8311610a34575b610a178183610e8c565b81010312610a3057918c8f94928f9796945197386106ab565b8880fd5b503d610a0d565b8e513d8b823e3d90fd5b505091519063a4168a9360e01b82523390820152fd5b5091816003193601126104b057610a70610dea565b60243567ffffffffffffffff811161042057610a92610a999136908701610e2c565b3691610eca565b90835191610aa683610e5a565b601883526020957f216469726563745377617070657243616c6c4661696c6564000000000000000087850152344710610b1157509083808388610af9969551910134855af1610af361107a565b916113dc565b9083828051810103126104b057508201519051908152f35b855162461bcd60e51b8152908101879052602660248201527f416464726573733a20696e73756666696369656e742062616c616e636520666f6044820152651c8818d85b1b60d21b6064820152608490fd5b5050346104dc57816003193601126104dc57905490516001600160a01b039091168152602090f35b5050346104dc5760203660031901126104dc57610ba6610dea565b610bae610f67565b6001600160a01b0316825260036020528120805460ff1916600117905580f35b5050346104dc5760203660031901126104dc5760209160ff9082906001600160a01b03610bf9610dea565b1681526003855220541690519015158152f35b5050346104dc57816003193601126104dc5760015490516001600160a01b039091168152602090f35b509034610420578260031936011261042057600254916001600160a01b03913383851603610cab5750506bffffffffffffffffffffffff60a01b8092166002556001549133908316176001553391167f8be0079c531659141344cd1fd0a4f28419497f9722a3daafe3b4186f6b6457e08380a380f35b906020608492519162461bcd60e51b8352820152602960248201527f4f776e61626c6532537465703a2063616c6c6572206973206e6f7420746865206044820152683732bb9037bbb732b960b91b6064820152fd5b83346104b057806003193601126104b057610d19610f67565b600280546001600160a01b031990811690915560018054918216905581906001600160a01b03167f8be0079c531659141344cd1fd0a4f28419497f9722a3daafe3b4186f6b6457e08280a380f35b5050346104dc5760203660031901126104dc57610d82610dea565b610d8a610f67565b6001600160a01b0316825260036020528120805460ff1916905580f35b8490346104dc57816003193601126104dc577f00000000000000000000000000000000000000000000000000000000000000006001600160a01b03168152602090f35b600435906001600160a01b03821682036108e857565b606435906001600160a01b03821682036108e857565b604435906001600160a01b03821682036108e857565b9181601f840112156108e85782359167ffffffffffffffff83116108e857602083818601950101116108e857565b6040810190811067ffffffffffffffff821117610e7657604052565b634e487b7160e01b600052604160045260246000fd5b90601f8019910116810190811067ffffffffffffffff821117610e7657604052565b67ffffffffffffffff8111610e7657601f01601f191660200190565b929192610ed682610eae565b91610ee46040519384610e8c565b8294818452818301116108e8578281602093846000960137010152565b9080601f830112156108e857816020610f1c93359101610eca565b90565b60005b838110610f325750506000910152565b8181015183820152602001610f22565b90602091610f5b81518092818552858086019101610f1f565b601f01601f1916010190565b6001546001600160a01b03163303610f7b57565b606460405162461bcd60e51b815260206004820152602060248201527f4f776e61626c653a2063616c6c6572206973206e6f7420746865206f776e65726044820152fd5b908160209103126108e8575180151581036108e85790565b92949390606092610ff5918552608060208601526080850190610f42565b60408401959095526001600160a01b0316910152565b600060443d10610f1c57604051600319913d83016004833e815167ffffffffffffffff918282113d60248401111761106957818401948551938411611071573d850101602084870101116110695750610f1c92910160200190610e8c565b949350505050565b50949350505050565b3d156110a5573d9061108b82610eae565b916110996040519384610e8c565b82523d6000602084013e565b606090565b51906001600160a01b03821682036108e857565b81601f820112156108e85780516110d481610eae565b926110e26040519485610e8c565b818452602082840101116108e857610f1c9160208085019101610f1f565b908060209392818452848401376000828201840152601f01601f1916010190565b92949060018060a01b03808516916000958387526020956003875260409960ff8b8a205416156113a65784169381169184831461139857826111ec575050509085859493926111978a51998a968795869463f6b13d3f60e01b865260048601526024850152606060448501526064840191611100565b03925af19384156111e1575081936111b0575b50505090565b9091809350813d83116111da575b6111c88183610e8c565b810103126104b05750513880806111aa565b503d6111be565b51913d9150823e3d90fd5b8a51636eb1769f60e11b81523060048201526001600160a01b03919091166024820152959893959193918781604481885afa90811561138e57918993918998979695938591611351575b508311611276575b50611197908b519a8b978896879563a2c554d360e01b8752600487015260248601526044850152608060648501526084840191611100565b919394959650915089518781019063095ea7b360e01b82528660248201526000196044820152604481526080810181811067ffffffffffffffff82111761133d578c5251899283929083905af16112cb61107a565b8161130d575b50156112e457859493929187913861123e565b885162461bcd60e51b8152600481018790526002602482015261534160f01b6044820152606490fd5b80518015925088908315611325575b505050386112d1565b6113359350820181019101610fbf565b38878161131c565b634e487b7160e01b8b52604160045260248bfd5b92945050919394959681813d8311611387575b61136e8183610e8c565b81010312610a305791839188979695948a945190611236565b503d611364565b8b513d8b823e3d90fd5b505050965050505050505090565b8a5162461bcd60e51b815260048101899052600f60248201526e10b0b63637bbb2b229bbb0b83832b960891b6044820152606490fd5b9192901561143e57508151156113f0575090565b3b156113f95790565b60405162461bcd60e51b815260206004820152601d60248201527f416464726573733a2063616c6c20746f206e6f6e2d636f6e74726163740000006044820152606490fd5b8251909150156114515750805190602001fd5b60405162461bcd60e51b815260206004820152908190611475906024830190610f42565b0390fdfea2646970667358221220dfcacb108837f0d3b00b9d72f33258761f3dece69156382d2b6907d976fe74b264736f6c63430008130033",
  "devdoc": {
    "kind": "dev",
    "methods": {
      "acceptOwnership()": {
        "details": "The new owner accepts the ownership transfer."
      },
      "addSwapper(address)": {
        "params": {
          "_swapper": "Address of the swapper to add."
        }
      },
      "directSwapperCall(address,bytes)": {
        "params": {
          "_swapper": "Address of the swapper to use.",
          "swapData": "Data to pass to the swapper. This data is encoded for a particular swap router."
        }
      },
      "exactSwap(address,uint256,address,address,bytes)": {
        "params": {
          "_amountIn": "Amount of tokens to swap.",
          "_fromAsset": "Address of the token to swap from.",
          "_swapData": "Data to pass to the swapper. This data is encoded for a particular swap router, usually given by an API. The swapper will decode the data and re-encode it with the new amountIn.",
          "_swapper": "Address of the swapper to use.",
          "_toAsset": "Address of the token to swap to."
        }
      },
      "owner()": {
        "details": "Returns the address of the current owner."
      },
      "pendingOwner()": {
        "details": "Returns the address of the pending owner."
      },
      "prepareAndForward(bytes32,bytes,uint256,address)": {
        "details": "This function is intended to be called by the xReceive function, and should not be called outside of that context. The function is `public` so that it can be used with try-catch.",
        "params": {
          "_amount": "- The amount of funds received in this transfer",
          "_asset": "- The asset of the funds received in this transfer",
          "_data": "- The data to be prepared",
          "_transferId": "- The transfer ID of the transfer that triggered this call"
        }
      },
      "removeSwapper(address)": {
        "params": {
          "_swapper": "Address of the swapper to remove."
        }
      },
      "renounceOwnership()": {
        "details": "Leaves the contract without owner. It will not be possible to call `onlyOwner` functions anymore. Can only be called by the current owner. NOTE: Renouncing ownership will leave the contract without an owner, thereby removing any functionality that is only available to the owner."
      },
      "transferOwnership(address)": {
        "details": "Starts the ownership transfer of the contract to a new account. Replaces the pending transfer if there is one. Can only be called by the current owner."
      },
      "xReceive(bytes32,uint256,address,address,uint32,bytes)": {
        "details": "_originSender and _origin are not used in this implementation because this is meant for an \"unauthenticated\" call. This means any router can call this function and no guarantees are made on the data passed in. This should only be used when there are funds passed into the contract that need to be forwarded to another contract. This guarantees economically that there is no reason to call this function maliciously, because the router would be spending their own funds.",
        "params": {
          "_amount": "- The amount of funds received in this transfer.",
          "_asset": "- The asset of the funds received in this transfer.",
          "_callData": "- The data to be prepared and forwarded. Fallback address needs to be encoded in the data to be used in case the forward fails.",
          "_transferId": "- The transfer ID of the transfer that triggered this call."
        }
      }
    },
    "version": 1
  },
  "userdoc": {
    "errors": {
      "ForwarderXReceiver__onlyConnext(address)": [
        {
          "notice": "ERRORS"
        }
      ]
    },
    "events": {
      "ForwardedFunctionCallFailed(bytes32)": {
        "notice": "EVENTS"
      }
    },
    "kind": "user",
    "methods": {
      "aavePool()": {
        "notice": "AavePool contract for deposit"
      },
      "addSwapper(address)": {
        "notice": "Add a swapper to the list of allowed swappers."
      },
      "directSwapperCall(address,bytes)": {
        "notice": "Swap an exact amount of tokens for another token. Uses a direct call to the swapper to allow easy swaps on the source side where the amount does not need to be changed."
      },
      "exactSwap(address,uint256,address,address,bytes)": {
        "notice": "Swap an exact amount of tokens for another token."
      },
      "prepareAndForward(bytes32,bytes,uint256,address)": {
        "notice": "Prepares the data for the function call and forwards it. This can execute any arbitrary function call in a two step process. For example, _prepare can be used to swap funds on a DEX, and _forwardFunctionCall can be used to call a contract with the swapped funds."
      },
      "removeSwapper(address)": {
        "notice": "Remove a swapper from the list of allowed swappers."
      },
      "xReceive(bytes32,uint256,address,address,uint32,bytes)": {
        "notice": "Receives funds from Connext and forwards them to a contract, using a two step process which is defined by the developer."
      }
    },
    "version": 1
  },
  "storageLayout": {
    "storage": [
      {
        "astId": 17234,
        "contract": "contracts/integration/AavePool/AavePoolTarget.sol:AavePoolTarget",
        "label": "aavePool",
        "offset": 0,
        "slot": "0",
        "type": "t_contract(IPool)2127"
      },
      {
        "astId": 15647,
        "contract": "contracts/integration/AavePool/AavePoolTarget.sol:AavePoolTarget",
        "label": "_owner",
        "offset": 0,
        "slot": "1",
        "type": "t_address"
      },
      {
        "astId": 15760,
        "contract": "contracts/integration/AavePool/AavePoolTarget.sol:AavePoolTarget",
        "label": "_pendingOwner",
        "offset": 0,
        "slot": "2",
        "type": "t_address"
      },
      {
        "astId": 17850,
        "contract": "contracts/integration/AavePool/AavePoolTarget.sol:AavePoolTarget",
        "label": "allowedSwappers",
        "offset": 0,
        "slot": "3",
        "type": "t_mapping(t_address,t_bool)"
      }
    ],
    "types": {
      "t_address": {
        "encoding": "inplace",
        "label": "address",
        "numberOfBytes": "20"
      },
      "t_bool": {
        "encoding": "inplace",
        "label": "bool",
        "numberOfBytes": "1"
      },
      "t_contract(IPool)2127": {
        "encoding": "inplace",
        "label": "contract IPool",
        "numberOfBytes": "20"
      },
      "t_mapping(t_address,t_bool)": {
        "encoding": "mapping",
        "key": "t_address",
        "label": "mapping(address => bool)",
        "numberOfBytes": "32",
        "value": "t_bool"
      }
    }
  }
}